{
  "_format": "hh-sol-artifact-1",
  "contractName": "AgentMessenger",
  "sourceName": "contracts/AgentMessenger.sol",
  "abi": [
    {
      "inputs": [
        {
          "internalType": "address",
          "name": "_registryAddress",
          "type": "address"
        },
        {
          "internalType": "address",
          "name": "_streamManager",
          "type": "address"
        }
      ],
      "stateMutability": "nonpayable",
      "type": "constructor"
    },
    {
      "anonymous": false,
      "inputs": [
        {
          "indexed": true,
          "internalType": "address",
          "name": "sender",
          "type": "address"
        },
        {
          "indexed": true,
          "internalType": "address",
          "name": "recipient",
          "type": "address"
        },
        {
          "indexed": false,
          "internalType": "string",
          "name": "messageType",
          "type": "string"
        },
        {
          "indexed": false,
          "internalType": "string",
          "name": "payload",
          "type": "string"
        },
        {
          "indexed": false,
          "internalType": "uint256",
          "name": "amountPerMinute",
          "type": "uint256"
        },
        {
          "indexed": false,
          "internalType": "uint256",
          "name": "durationMinutes",
          "type": "uint256"
        },
        {
          "indexed": false,
          "internalType": "uint256",
          "name": "timestamp",
          "type": "uint256"
        }
      ],
      "name": "MessageSent",
      "type": "event"
    },
    {
      "inputs": [],
      "name": "registry",
      "outputs": [
        {
          "internalType": "contract IAgentRegistry",
          "name": "",
          "type": "address"
        }
      ],
      "stateMutability": "view",
      "type": "function"
    },
    {
      "inputs": [
        {
          "internalType": "address",
          "name": "recipient",
          "type": "address"
        },
        {
          "internalType": "string",
          "name": "messageType",
          "type": "string"
        },
        {
          "internalType": "string",
          "name": "payload",
          "type": "string"
        },
        {
          "internalType": "uint256",
          "name": "amountPerMinute",
          "type": "uint256"
        },
        {
          "internalType": "uint256",
          "name": "durationMinutes",
          "type": "uint256"
        }
      ],
      "name": "sendMessageWithStream",
      "outputs": [],
      "stateMutability": "payable",
      "type": "function"
    },
    {
      "inputs": [],
      "name": "streamManager",
      "outputs": [
        {
          "internalType": "contract IStreamManager",
          "name": "",
          "type": "address"
        }
      ],
      "stateMutability": "view",
      "type": "function"
    }
  ],
  "bytecode": "0x608060405234801561001057600080fd5b506040516109693803806109698339818101604052810190610032919061011d565b816000806101000a81548173ffffffffffffffffffffffffffffffffffffffff021916908373ffffffffffffffffffffffffffffffffffffffff16021790555080600160006101000a81548173ffffffffffffffffffffffffffffffffffffffff021916908373ffffffffffffffffffffffffffffffffffffffff160217905550505061015d565b600080fd5b600073ffffffffffffffffffffffffffffffffffffffff82169050919050565b60006100ea826100bf565b9050919050565b6100fa816100df565b811461010557600080fd5b50565b600081519050610117816100f1565b92915050565b60008060408385031215610134576101336100ba565b5b600061014285828601610108565b925050602061015385828601610108565b9150509250929050565b6107fd8061016c6000396000f3fe6080604052600436106100345760003560e01c806334fe2676146100395780637b10399914610064578063dbb3368f1461008f575b600080fd5b34801561004557600080fd5b5061004e6100ab565b60405161005b91906102cf565b60405180910390f35b34801561007057600080fd5b506100796100d1565b604051610086919061030b565b60405180910390f35b6100a960048036038101906100a491906104f4565b6100f5565b005b600160009054906101000a900473ffffffffffffffffffffffffffffffffffffffff1681565b60008054906101000a900473ffffffffffffffffffffffffffffffffffffffff1681565b6000818361010391906105d6565b9050803414610147576040517f08c379a000000000000000000000000000000000000000000000000000000000815260040161013e90610675565b60405180910390fd5b600160009054906101000a900473ffffffffffffffffffffffffffffffffffffffff1673ffffffffffffffffffffffffffffffffffffffff1663b4c6219d34338987876040518663ffffffff1660e01b81526004016101a994939291906106b3565b6000604051808303818588803b1580156101c257600080fd5b505af11580156101d6573d6000803e3d6000fd5b50505050508573ffffffffffffffffffffffffffffffffffffffff163373ffffffffffffffffffffffffffffffffffffffff167fe164d633f73bbf81d5e8007d3690d48711ffec31efde12f706cc9bfe0521b9c08787878742604051610240959493929190610766565b60405180910390a3505050505050565b600073ffffffffffffffffffffffffffffffffffffffff82169050919050565b6000819050919050565b600061029561029061028b84610250565b610270565b610250565b9050919050565b60006102a78261027a565b9050919050565b60006102b98261029c565b9050919050565b6102c9816102ae565b82525050565b60006020820190506102e460008301846102c0565b92915050565b60006102f58261029c565b9050919050565b610305816102ea565b82525050565b600060208201905061032060008301846102fc565b92915050565b6000604051905090565b600080fd5b600080fd5b600061034582610250565b9050919050565b6103558161033a565b811461036057600080fd5b50565b6000813590506103728161034c565b92915050565b600080fd5b600080fd5b6000601f19601f8301169050919050565b7f4e487b7100000000000000000000000000000000000000000000000000000000600052604160045260246000fd5b6103cb82610382565b810181811067ffffffffffffffff821117156103ea576103e9610393565b5b80604052505050565b60006103fd610326565b905061040982826103c2565b919050565b600067ffffffffffffffff82111561042957610428610393565b5b61043282610382565b9050602081019050919050565b82818337600083830152505050565b600061046161045c8461040e565b6103f3565b90508281526020810184848401111561047d5761047c61037d565b5b61048884828561043f565b509392505050565b600082601f8301126104a5576104a4610378565b5b81356104b584826020860161044e565b91505092915050565b6000819050919050565b6104d1816104be565b81146104dc57600080fd5b50565b6000813590506104ee816104c8565b92915050565b600080600080600060a086880312156105105761050f610330565b5b600061051e88828901610363565b955050602086013567ffffffffffffffff81111561053f5761053e610335565b5b61054b88828901610490565b945050604086013567ffffffffffffffff81111561056c5761056b610335565b5b61057888828901610490565b9350506060610589888289016104df565b925050608061059a888289016104df565b9150509295509295909350565b7f4e487b7100000000000000000000000000000000000000000000000000000000600052601160045260246000fd5b60006105e1826104be565b91506105ec836104be565b92508282026105fa816104be565b91508282048414831517610611576106106105a7565b5b5092915050565b600082825260208201905092915050565b7f496e636f7272656374204554482073656e740000000000000000000000000000600082015250565b600061065f601283610618565b915061066a82610629565b602082019050919050565b6000602082019050818103600083015261068e81610652565b9050919050565b61069e8161033a565b82525050565b6106ad816104be565b82525050565b60006080820190506106c86000830187610695565b6106d56020830186610695565b6106e260408301856106a4565b6106ef60608301846106a4565b95945050505050565b600081519050919050565b60005b83811015610721578082015181840152602081019050610706565b60008484015250505050565b6000610738826106f8565b6107428185610618565b9350610752818560208601610703565b61075b81610382565b840191505092915050565b600060a0820190508181036000830152610780818861072d565b90508181036020830152610794818761072d565b90506107a360408301866106a4565b6107b060608301856106a4565b6107bd60808301846106a4565b969550505050505056fea2646970667358221220570b6fdab99865fdafb68db19aa5a2acce348134796811446d4a5c186dcbf2e164736f6c634300081c0033",
  "linkReferences": {},
  "deployedLinkReferences": {}
}