{
  "_format": "hh-sol-artifact-1",
  "contractName": "StreamManager",
  "sourceName": "contracts/StreamManager.sol",
  "abi": [
    {
      "anonymous": false,
      "inputs": [
        {
          "indexed": true,
          "internalType": "address",
          "name": "from",
          "type": "address"
        },
        {
          "indexed": true,
          "internalType": "address",
          "name": "to",
          "type": "address"
        },
        {
          "indexed": false,
          "internalType": "uint256",
          "name": "refunded",
          "type": "uint256"
        }
      ],
      "name": "StreamCancelled",
      "type": "event"
    },
    {
      "anonymous": false,
      "inputs": [
        {
          "indexed": true,
          "internalType": "address",
          "name": "from",
          "type": "address"
        },
        {
          "indexed": true,
          "internalType": "address",
          "name": "to",
          "type": "address"
        },
        {
          "indexed": false,
          "internalType": "uint256",
          "name": "flowRate",
          "type": "uint256"
        }
      ],
      "name": "StreamOpened",
      "type": "event"
    },
    {
      "anonymous": false,
      "inputs": [
        {
          "indexed": true,
          "internalType": "address",
          "name": "to",
          "type": "address"
        },
        {
          "indexed": true,
          "internalType": "address",
          "name": "from",
          "type": "address"
        },
        {
          "indexed": false,
          "internalType": "uint256",
          "name": "amount",
          "type": "uint256"
        }
      ],
      "name": "Withdrawn",
      "type": "event"
    },
    {
      "inputs": [
        {
          "internalType": "address",
          "name": "to",
          "type": "address"
        }
      ],
      "name": "cancelStream",
      "outputs": [],
      "stateMutability": "nonpayable",
      "type": "function"
    },
    {
      "inputs": [
        {
          "internalType": "address",
          "name": "from",
          "type": "address"
        },
        {
          "internalType": "address",
          "name": "to",
          "type": "address"
        },
        {
          "internalType": "uint256",
          "name": "amountPerMinute",
          "type": "uint256"
        },
        {
          "internalType": "uint256",
          "name": "durationMinutes",
          "type": "uint256"
        }
      ],
      "name": "depositStream",
      "outputs": [],
      "stateMutability": "payable",
      "type": "function"
    },
    {
      "inputs": [
        {
          "internalType": "address",
          "name": "from",
          "type": "address"
        },
        {
          "internalType": "address",
          "name": "to",
          "type": "address"
        }
      ],
      "name": "getOwed",
      "outputs": [
        {
          "internalType": "uint256",
          "name": "",
          "type": "uint256"
        }
      ],
      "stateMutability": "view",
      "type": "function"
    },
    {
      "inputs": [
        {
          "internalType": "address",
          "name": "from",
          "type": "address"
        },
        {
          "internalType": "address",
          "name": "to",
          "type": "address"
        }
      ],
      "name": "getStream",
      "outputs": [
        {
          "components": [
            {
              "internalType": "uint256",
              "name": "startTime",
              "type": "uint256"
            },
            {
              "internalType": "uint256",
              "name": "flowRate",
              "type": "uint256"
            },
            {
              "internalType": "uint256",
              "name": "lastUpdate",
              "type": "uint256"
            },
            {
              "internalType": "uint256",
              "name": "balance",
              "type": "uint256"
            },
            {
              "internalType": "bool",
              "name": "active",
              "type": "bool"
            }
          ],
          "internalType": "struct StreamManager.Stream",
          "name": "",
          "type": "tuple"
        }
      ],
      "stateMutability": "view",
      "type": "function"
    },
    {
      "inputs": [
        {
          "internalType": "address",
          "name": "to",
          "type": "address"
        },
        {
          "internalType": "uint256",
          "name": "flowRatePerSecond",
          "type": "uint256"
        }
      ],
      "name": "openStream",
      "outputs": [],
      "stateMutability": "payable",
      "type": "function"
    },
    {
      "inputs": [
        {
          "internalType": "address",
          "name": "",
          "type": "address"
        },
        {
          "internalType": "address",
          "name": "",
          "type": "address"
        }
      ],
      "name": "streams",
      "outputs": [
        {
          "internalType": "uint256",
          "name": "startTime",
          "type": "uint256"
        },
        {
          "internalType": "uint256",
          "name": "flowRate",
          "type": "uint256"
        },
        {
          "internalType": "uint256",
          "name": "lastUpdate",
          "type": "uint256"
        },
        {
          "internalType": "uint256",
          "name": "balance",
          "type": "uint256"
        },
        {
          "internalType": "bool",
          "name": "active",
          "type": "bool"
        }
      ],
      "stateMutability": "view",
      "type": "function"
    },
    {
      "inputs": [
        {
          "internalType": "address",
          "name": "to",
          "type": "address"
        }
      ],
      "name": "topUp",
      "outputs": [],
      "stateMutability": "payable",
      "type": "function"
    },
    {
      "inputs": [
        {
          "internalType": "address",
          "name": "from",
          "type": "address"
        }
      ],
      "name": "withdraw",
      "outputs": [],
      "stateMutability": "nonpayable",
      "type": "function"
    },
    {
      "stateMutability": "payable",
      "type": "receive"
    }
  ],
  "bytecode": "0x6080604052348015600f57600080fd5b506116618061001f6000396000f3fe60806040526004361061007f5760003560e01c806351cff8d91161004e57806351cff8d91461014e57806364a80c0c146101775780637352b84214610193578063b4c6219d146101d057610086565b806306754ba51461008b5780630bf2b21a146100cc5780631bbed321146100f5578063385368781461011157610086565b3661008657005b600080fd5b34801561009757600080fd5b506100b260048036038101906100ad9190610efe565b6101ec565b6040516100c3959493929190610f72565b60405180910390f35b3480156100d857600080fd5b506100f360048036038101906100ee9190610fc5565b61023c565b005b61010f600480360381019061010a9190610fc5565b610558565b005b34801561011d57600080fd5b5061013860048036038101906101339190610efe565b610647565b6040516101459190610ff2565b60405180910390f35b34801561015a57600080fd5b5061017560048036038101906101709190610fc5565b610732565b005b610191600480360381019061018c9190611039565b610928565b005b34801561019f57600080fd5b506101ba60048036038101906101b59190610efe565b610b2a565b6040516101c791906110ff565b60405180910390f35b6101ea60048036038101906101e5919061111a565b610c03565b005b6000602052816000526040600020602052806000526040600020600091509150508060000154908060010154908060020154908060030154908060040160009054906101000a900460ff16905085565b60008060003373ffffffffffffffffffffffffffffffffffffffff1673ffffffffffffffffffffffffffffffffffffffff16815260200190815260200160002060008373ffffffffffffffffffffffffffffffffffffffff1673ffffffffffffffffffffffffffffffffffffffff16815260200190815260200160002090508060040160009054906101000a900460ff1661030c576040517f08c379a0000000000000000000000000000000000000000000000000000000008152600401610303906111de565b60405180910390fd5b60006103183384610647565b905060008111156103eb5780826003016000828254610337919061122d565b925050819055508273ffffffffffffffffffffffffffffffffffffffff166108fc829081150290604051600060405180830381858888f19350505050158015610384573d6000803e3d6000fd5b503373ffffffffffffffffffffffffffffffffffffffff168373ffffffffffffffffffffffffffffffffffffffff167fd1c19fbcd4551a5edfb66d43d2e337c04837afda3482b42bdf569a8fccdae5fb836040516103e29190610ff2565b60405180910390a35b6000826003015490506000803373ffffffffffffffffffffffffffffffffffffffff1673ffffffffffffffffffffffffffffffffffffffff16815260200190815260200160002060008573ffffffffffffffffffffffffffffffffffffffff1673ffffffffffffffffffffffffffffffffffffffff1681526020019081526020016000206000808201600090556001820160009055600282016000905560038201600090556004820160006101000a81549060ff021916905550503373ffffffffffffffffffffffffffffffffffffffff166108fc829081150290604051600060405180830381858888f193505050501580156104ec573d6000803e3d6000fd5b508373ffffffffffffffffffffffffffffffffffffffff163373ffffffffffffffffffffffffffffffffffffffff167fa1f21d24ad03134bd2f3a5c6bd565a643435693cf92c6273c7c4312502819cb68360405161054a9190610ff2565b60405180910390a350505050565b60008060003373ffffffffffffffffffffffffffffffffffffffff1673ffffffffffffffffffffffffffffffffffffffff16815260200190815260200160002060008373ffffffffffffffffffffffffffffffffffffffff1673ffffffffffffffffffffffffffffffffffffffff16815260200190815260200160002090508060040160009054906101000a900460ff16610628576040517f08c379a000000000000000000000000000000000000000000000000000000000815260040161061f906111de565b60405180910390fd5b3481600301600082825461063c9190611261565b925050819055505050565b6000806000808573ffffffffffffffffffffffffffffffffffffffff1673ffffffffffffffffffffffffffffffffffffffff16815260200190815260200160002060008473ffffffffffffffffffffffffffffffffffffffff1673ffffffffffffffffffffffffffffffffffffffff16815260200190815260200160002090508060040160009054906101000a900460ff166106e757600091505061072c565b60008160020154426106f9919061122d565b9050600082600101548261070d9190611295565b9050826003015481116107205780610726565b82600301545b93505050505b92915050565b60008060008373ffffffffffffffffffffffffffffffffffffffff1673ffffffffffffffffffffffffffffffffffffffff16815260200190815260200160002060003373ffffffffffffffffffffffffffffffffffffffff1673ffffffffffffffffffffffffffffffffffffffff16815260200190815260200160002090508060040160009054906101000a900460ff16610802576040517f08c379a00000000000000000000000000000000000000000000000000000000081526004016107f9906111de565b60405180910390fd5b600061080e8333610647565b905060008111610853576040517f08c379a000000000000000000000000000000000000000000000000000000000815260040161084a90611323565b60405180910390fd5b42826002018190555080826003016000828254610870919061122d565b925050819055503373ffffffffffffffffffffffffffffffffffffffff166108fc829081150290604051600060405180830381858888f193505050501580156108bd573d6000803e3d6000fd5b508273ffffffffffffffffffffffffffffffffffffffff163373ffffffffffffffffffffffffffffffffffffffff167fd1c19fbcd4551a5edfb66d43d2e337c04837afda3482b42bdf569a8fccdae5fb8360405161091b9190610ff2565b60405180910390a3505050565b6000811161096b576040517f08c379a00000000000000000000000000000000000000000000000000000000081526004016109629061138f565b60405180910390fd5b600034116109ae576040517f08c379a00000000000000000000000000000000000000000000000000000000081526004016109a5906113fb565b60405180910390fd5b60008060003373ffffffffffffffffffffffffffffffffffffffff1673ffffffffffffffffffffffffffffffffffffffff16815260200190815260200160002060008473ffffffffffffffffffffffffffffffffffffffff1673ffffffffffffffffffffffffffffffffffffffff16815260200190815260200160002090508060040160009054906101000a900460ff1615610a7f576040517f08c379a0000000000000000000000000000000000000000000000000000000008152600401610a7690611467565b60405180910390fd5b42816000018190555081816001018190555042816002018190555034816003018190555060018160040160006101000a81548160ff0219169083151502179055508273ffffffffffffffffffffffffffffffffffffffff163373ffffffffffffffffffffffffffffffffffffffff167f4baaa557c21346b70bdc9482890b5d7e315f6a2123611e74004857ebecde068684604051610b1d9190610ff2565b60405180910390a3505050565b610b32610e6a565b6000808473ffffffffffffffffffffffffffffffffffffffff1673ffffffffffffffffffffffffffffffffffffffff16815260200190815260200160002060008373ffffffffffffffffffffffffffffffffffffffff1673ffffffffffffffffffffffffffffffffffffffff1681526020019081526020016000206040518060a0016040529081600082015481526020016001820154815260200160028201548152602001600382015481526020016004820160009054906101000a900460ff161515151581525050905092915050565b60008211610c46576040517f08c379a0000000000000000000000000000000000000000000000000000000008152600401610c3d906114d3565b60405180910390fd5b60008111610c89576040517f08c379a0000000000000000000000000000000000000000000000000000000008152600401610c809061153f565b60405180910390fd5b60008183610c979190611295565b9050803414610cdb576040517f08c379a0000000000000000000000000000000000000000000000000000000008152600401610cd2906115ab565b60405180910390fd5b60008060008773ffffffffffffffffffffffffffffffffffffffff1673ffffffffffffffffffffffffffffffffffffffff16815260200190815260200160002060008673ffffffffffffffffffffffffffffffffffffffff1673ffffffffffffffffffffffffffffffffffffffff16815260200190815260200160002090508060040160009054906101000a900460ff1615610dac576040517f08c379a0000000000000000000000000000000000000000000000000000000008152600401610da390611467565b60405180910390fd5b428160000181905550603c84610dc291906115fa565b816001018190555042816002018190555034816003018190555060018160040160006101000a81548160ff0219169083151502179055508473ffffffffffffffffffffffffffffffffffffffff168673ffffffffffffffffffffffffffffffffffffffff167f4baaa557c21346b70bdc9482890b5d7e315f6a2123611e74004857ebecde06868360010154604051610e5a9190610ff2565b60405180910390a3505050505050565b6040518060a00160405280600081526020016000815260200160008152602001600081526020016000151581525090565b600080fd5b600073ffffffffffffffffffffffffffffffffffffffff82169050919050565b6000610ecb82610ea0565b9050919050565b610edb81610ec0565b8114610ee657600080fd5b50565b600081359050610ef881610ed2565b92915050565b60008060408385031215610f1557610f14610e9b565b5b6000610f2385828601610ee9565b9250506020610f3485828601610ee9565b9150509250929050565b6000819050919050565b610f5181610f3e565b82525050565b60008115159050919050565b610f6c81610f57565b82525050565b600060a082019050610f876000830188610f48565b610f946020830187610f48565b610fa16040830186610f48565b610fae6060830185610f48565b610fbb6080830184610f63565b9695505050505050565b600060208284031215610fdb57610fda610e9b565b5b6000610fe984828501610ee9565b91505092915050565b60006020820190506110076000830184610f48565b92915050565b61101681610f3e565b811461102157600080fd5b50565b6000813590506110338161100d565b92915050565b600080604083850312156110505761104f610e9b565b5b600061105e85828601610ee9565b925050602061106f85828601611024565b9150509250929050565b61108281610f3e565b82525050565b61109181610f57565b82525050565b60a0820160008201516110ad6000850182611079565b5060208201516110c06020850182611079565b5060408201516110d36040850182611079565b5060608201516110e66060850182611079565b5060808201516110f96080850182611088565b50505050565b600060a0820190506111146000830184611097565b92915050565b6000806000806080858703121561113457611133610e9b565b5b600061114287828801610ee9565b945050602061115387828801610ee9565b935050604061116487828801611024565b925050606061117587828801611024565b91505092959194509250565b600082825260208201905092915050565b7f4e6f206163746976652073747265616d00000000000000000000000000000000600082015250565b60006111c8601083611181565b91506111d382611192565b602082019050919050565b600060208201905081810360008301526111f7816111bb565b9050919050565b7f4e487b7100000000000000000000000000000000000000000000000000000000600052601160045260246000fd5b600061123882610f3e565b915061124383610f3e565b925082820390508181111561125b5761125a6111fe565b5b92915050565b600061126c82610f3e565b915061127783610f3e565b925082820190508082111561128f5761128e6111fe565b5b92915050565b60006112a082610f3e565b91506112ab83610f3e565b92508282026112b981610f3e565b915082820484148315176112d0576112cf6111fe565b5b5092915050565b7f4e6f7468696e6720746f20776974686472617700000000000000000000000000600082015250565b600061130d601383611181565b9150611318826112d7565b602082019050919050565b6000602082019050818103600083015261133c81611300565b9050919050565b7f5a65726f20726174650000000000000000000000000000000000000000000000600082015250565b6000611379600983611181565b915061138482611343565b602082019050919050565b600060208201905081810360008301526113a88161136c565b9050919050565b7f4d757374206465706f7369742045544800000000000000000000000000000000600082015250565b60006113e5601083611181565b91506113f0826113af565b602082019050919050565b60006020820190508181036000830152611414816113d8565b9050919050565b7f53747265616d20616c7265616479206163746976650000000000000000000000600082015250565b6000611451601583611181565b915061145c8261141b565b602082019050919050565b6000602082019050818103600083015261148081611444565b9050919050565b7f496e76616c696420726174650000000000000000000000000000000000000000600082015250565b60006114bd600c83611181565b91506114c882611487565b602082019050919050565b600060208201905081810360008301526114ec816114b0565b9050919050565b7f496e76616c6964206475726174696f6e00000000000000000000000000000000600082015250565b6000611529601083611181565b9150611534826114f3565b602082019050919050565b600060208201905081810360008301526115588161151c565b9050919050565b7f496e636f7272656374204554482073656e740000000000000000000000000000600082015250565b6000611595601283611181565b91506115a08261155f565b602082019050919050565b600060208201905081810360008301526115c481611588565b9050919050565b7f4e487b7100000000000000000000000000000000000000000000000000000000600052601260045260246000fd5b600061160582610f3e565b915061161083610f3e565b9250826116205761161f6115cb565b5b82820490509291505056fea2646970667358221220f05a200c91fb52ce5d839f36599aa0c3d7fe57fe8182f41c5862d4bcdaf118cb64736f6c634300081c0033",
  "linkReferences": {},
  "deployedLinkReferences": {}
}